:020000040800F2
:100000000000022025050008750500087505000898
:10001000750500087505000875050008000000005A
:10002000000000000000000000000000750500084E
:10003000750500080000000075050008550200085D
:1000400075050008750500087505000875050008A8
:100050007505000875050008750500087505000898
:100060007505000875050008750500087505000888
:100070007505000875050008750500087505000878
:100080007505000875050008750500087505000868
:100090007505000875050008750500087505000858
:1000A0007505000875050008750500087505000848
:1000B0007505000875050008750500087505000838
:1000C0007505000875050008750500087505000828
:1000D0007505000845040008750500087505000849
:1000E0007505000875050008750500087505000808
:1000F00075050008750500087505000875050008F8
:1001000075050008750500087505000875050008E7
:1001100075050008750500087505000875050008D7
:1001200075050008750500087505000875050008C7
:1001300075050008750500087505000875050008B7
:1001400075050008750500087505000875050008A7
:100150007505000875050008750500087505000897
:100160007505000875050008750500087505000887
:1001700075050008750500087505000800000000F9
:08018000750500087505000873
:1001880010B5054C237833B9044B13B10448AFF3C9
:1001980000800123237010BD000000200000000033
:1001A800C005000808B5034B1BB103490348AFF36A
:1001B800008008BD0000000004000020C005000801
:1001C8000C4B0D491A6830B40C4D0D4CC00822F088
:1001D80004021A6028701A68C0EB401500EB85000D
:1001E80042F00202F0251A60C00084F8235030BCA7
:1001F8000880704710E000E0280000202A00002056
:1002080000ED00E0D0B40E4C0E4A0F4B12880F469A
:100218000646C4E90067002199605A601A6842F0EE
:1002280001021A60D4E900231343FBD1064B1A6874
:10023800002122F001021A60D0BC9960704700BF0B
:10024800200000202800002010E000E0084BD3E93F
:10025800000150EA01020AD030B4D3E9000110F1DC
:10026800FF3441F1FF35C3E9004530BC70477047A2
:10027800200000202DE9F04F83B002F1FF3A0193EE
:10028800DDF830B000234FF0010C4FF0030902E015
:100298000133102B34D00CFA03F636EA0104F7D1F7
:1002A80007685C0009FA04F527EA0507076007688C
:1002B80002FA04F848EA0707BAF1010F0BFA04FE3C
:1002C8006FEA050507600FD887682F408760876841
:1002D8004EEA07078760476827EA06064660019ED8
:1002E80047689E403E434660C6683540C5600D9EDF
:1002F800C56806FA04F401332C43102BC460CAD134
:1003080003B0BDE8F08F00BFF0B4304E346844F459
:1003180080343460346814F400340DD141F6FF772A
:1003280001E0BC424FD035680134AD03A4B2F8D522
:1003380041F6FF75AC4246D0244D254E2C6C44F056
:1003480080542C64346844F440443460AE685208E5
:10035800013A1C0646F41446AE6044EA02442B688F
:10036800214341EA801223F0807342F480022B601B
:100378006A602B6843F080732B602B461A689201E1
:10038800FCD51449114A086840F480700860086870
:1003980040F400700860086840F4806008600868ED
:1003A80040F005000860996821F003019960996898
:1003B80041F002019960936803F00C03082BFAD10D
:1003C8000020F0BC70470120F0BC704700380240A4
:1003D80000700040003C0240F0B40B4C0B4F256805
:1003E800002645F001052560A660256825F084757E
:1003F80025F4803525606760256825F4802525600B
:10040800E660F0BCFFF780BF0038024010300024DF
:1004180010B5094CD4F8883043F47003C4F8883018
:100428000222072308214FF4A870FFF7D5FF4FF0E9
:100438000063A36010BD00BF00ED00E0174B1A6811
:10044800900600D47047164A5868B2F9001013880D
:100458000029F7DB590404D50A2814D00023138097
:10046800F0E70D2815D0591C10B489B20D4C118035
:10047800C3F30D03C72944F8230001D900231380CF
:100488005DF8044B70476FEA43436FEA53431380A8
:10049800704743F480431380704700BF0010014049
:1004A8002C0000203000002008B5A820FFF788FEA7
:1004B80000F016F8084D094C2B68B3FA83F35B0972
:1004C8002B602368B3FA83F35B09236041F2883019
:1004D8000021FFF797FEEFE7980240429C02404256
:1004E80010B50A4A0A48136B012482B0234303213A
:1004F8001363CDE9001422460023C021FFF7BAFE9A
:10050800044A054B14601C6002B010BD003802405C
:1005180000000240980240429C024042DFF834D07A
:10052800002103E00C4B5B58435004310B480C4B43
:1005380042189A42F6D30B4A02E0002342F8043BE1
:10054800094B9A42F9D3FFF763FF00F011F8FFF760
:10055800ABFF704700000220E00500080000002003
:100568000000002000000020B8030020FEE7000083
:1005780070B50D4D0D4C641BA4100026A64209D180
:100588000B4D0C4C00F018F8641BA4100026A64272
:1005980005D170BD55F8043B98470136EEE755F88C
:1005A800043B98470136F2E7D8050008D80500084B
:1005B800D8050008DC050008F8B500BFF8BC08BC81
:1005C8009E467047F8B500BFF8BC08BC9E46704709
:0405D800AD01000869
:0405DC008901000889
:0400000508000525C5
:00000001FF
